:020000040800F2
:1000000098080020AD010008AB310008912D0008D0
:10001000A931000803150008213A0008000000007B
:100020000000000000000000000000002532000871
:100030008D16000800000000AD31000827320008CE
:10004000C7010008C7010008C7010008C701000870
:10005000C7010008C701000891160008C51600086E
:10006000C7010008C7010008C7010008C701000850
:10007000C7010008C7010008C7010008C701000840
:10008000C7010008C7010008C7010008C701000830
:10009000C7010008C7010008C7010008C701000820
:1000A000C7010008C7010008C7010008C701000810
:1000B0008D320008C701000899320008C701000806
:1000C000C7010008C7010008C7010008C7010008F0
:1000D000C701000861380008C7010008C70100080F
:1000E000C7010008C7010008C701000800F002F8B6
:1000F00000F04DF80AA090E8000C82448344AAF175
:100100000107DA4501D100F042F8AFF2090EBAE872
:100110000F0013F0010F18BFFB1A43F0010318473B
:10012000AC460000CC460000103A24BF78C878C125
:10013000FAD8520724BF30C830C144BF04680C60ED
:10014000704700000023002400250026103A28BF35
:1001500078C1FBD8520728BF30C148BF0B60704739
:10016000662904F0D182642900F07E80732900F0B2
:100170008684002070471FB500F086FC0400002034
:10018000002103F0C1FDE0601FBD10B510BD00F0FF
:100190007BFD1146FFF7EFFF03F08AFC00F099FDAD
:1001A00003B4FFF7F2FF03BC00F0DCFD0948804711
:1001B00009480047FEE7FEE7FEE7FEE7FEE7FEE749
:1001C000FEE7FEE7FEE7FEE704480549054A064B61
:1001D0007047000089320008ED00000898020020F6
:1001E0009808002098040020980400200FB41CB543
:1001F000074B06AA7B4469460090059800F015FC61
:100200000020694600F024FC1CBC5DF814FB0000D3
:100210005908000070B50C460546012A05D028781B
:10022000800600D5EA69002302E0012305E05B1C9B
:10023000934202D2E05C0028F9D1A869E618C01AFE
:10024000A861286A184428622846AFF3008004E0B9
:10025000D5E9012114F8010B9047B442F8D32846A0
:10026000AFF3008070BD00002DE9F0410646002488
:1002700010687529314616A510D0AFF3008000280C
:1002800002DA404213A507E031688A0701D512A5BA
:1002900002E0490704D511A5012401E0AFF3008075
:1002A00000210A2206F1240709E0B0FBF2FCB0FBB2
:1002B000F2F302FB1C00303078541846491C002829
:1002C000F3D123462A463046BDE8F04100F040B95C
:1002D000000000002D0000002B00000020000000A6
:1002E0002DE9F0474FF0000A89460446C0F820A0E7
:1002F0002046E1688847002876D0252806D0D4E932
:1003000001219047206A401C2062F1E7E168204605
:1003100000258847C4F81CA006460027C4F818A08A
:100320002A2E09D0304603F0A0FB38B304EB87082F
:10033000303EC8F8186019E059F8041B204604EB59
:1003400087029161E1688847012F064618D1E0696C
:10035000002820DA25F020051DE0D8F8180000EB71
:10036000800006EB40003038C8F818002046E168ED
:100370008847064603F079FB0028EED1012F0AD00A
:100380002E2E08D12046E16888477F1C0646022FA2
:1003900045F02005C4DBA069002803DA404245F09F
:1003A0000105A061E80701D025F01005B6B1A6F15E
:1003B0004100192802D8203645F400654A463146E6
:1003C000204625604D46FFF7CBFE58B1012806D0E8
:1003D000ED1D25F0070000F1080989E704E005F1AB
:1003E000040985E730468AE7206ABDE8F08730B522
:1003F00005460B462A4613F8014B12F8010B08B1CB
:10040000A042F8D01CB1002802D06D1CF1E72846AC
:1004100030BD40EA0103024630B59B0710D14FF0D2
:10042000013400E008C208C91D1B9D4315EAC41F22
:10043000F8D013F0FF0102F8011B0DD01B0AF8E7FA
:1004400011F8013B002B02F8013B05D011F8013BEC
:10045000002B02F8013BF3D130BD10B5431C02E084
:1004600010F8011B71B18107FAD14FF0013202C8B7
:100470008C1A8C4314EAC211F9D0C01A0A0603D0B0
:10048000C01E10BDC01A10BD0A0401D0801E10BDD0
:100490000902FCD0401E10BD10B5203AC0F00B8000
:1004A000B1E81850203AA0E81850B1E81850A0E878
:1004B0001850BFF4F5AF5FEA027C24BFB1E81850D2
:1004C000A0E8185044BF18C918C0BDE810405FEA42
:1004D000827C24BF51F8043B40F8043B08BF7047BE
:1004E000D20728BF31F8023B48BF11F8012B28BFC3
:1004F00020F8023B48BF00F8012B70474FF0000284
:1005000000B5134694469646203922BFA0E80C5009
:10051000A0E80C50B1F12001BFF4F7AF090728BFE4
:10052000A0E80C5048BF0CC05DF804EB890028BF60
:1005300040F8042B08BF704748BF20F8022B11F089
:10054000804F18BF00F8012B704770477047704705
:100550002DE9F0470D4699469246044600F12408DD
:100560000168880604D5E06921F01001216000E0EF
:100570000120A84201DD471B00E00027A1697A198C
:1005800002EB0900081AA0612078C00602D42046B8
:10059000AFF30080002608E0D4E901211AF8060034
:1005A0009047206A401C761C20624E45F4DB207880
:1005B000C0060AD52046AFF3008006E0D4E9012149
:1005C00030209047206A401C2062381EA7F10107A6
:1005D000F4DC07E0D4E9012118F805009047206A0F
:1005E000401C2062281EA5F10105F3DC2046AFF374
:1005F00000802078000602D50220BDE8F0870120A7
:10060000FBE770472DE9FF4F0C461E464FF0FF37C2
:100610008BB0D2E90001DDF860800A908A46C1F310
:100620000A5505B93D46002108464FF00000BAF1D1
:10063000000F00F4400005DA00EB80004FF44001A9
:1006400001EA50004FEA9059B9F1010F00DDB946B7
:100650000A9850EA4A000ED044F61050A5F2FF3531
:1006600045432F14B8F1000F1ED07542291E1EDD20
:10067000C9F100021CE0B8F1010F4FF0000001D0F9
:10068000302103E0F24305E02154401CB042FBDB83
:1006900030460022002121540B99C1F80880C1E99D
:1006A00000200FB0BDE8F08FBD1B6D1CDEE74A4691
:1006B00000DA694206A800F071FA06AB93E8070079
:1006C00003AB83E8070050460A9900F052FB8DE81F
:1006D0000700A0F500501F3800900398002D0ADD98
:1006E00042F21F014A460844002303A903906846CA
:1006F00000F0BBFD09E0A0F500504A461F3800237A
:1007000003A90390684600F0C5FD8DE807000004CA
:10071000000C03D04FF0FF30410800E01046B8F164
:10072000000F03D00022009215461EE0751E05D46E
:1007300000F0AEF9303262556D1EF9D5B346012294
:10074000084302D000227F1C04E02078302801D129
:1007500000227F1E002A099784D01DE0112D07DAA0
:1007600000F096F9303262556D1C50EA0102F5D165
:10077000084302D00098C8B10EE00021681E05E0D1
:10078000235C625C63542254401E491C8142F7DBA7
:10079000AB46A81B401E0990002004F80B000B98E4
:1007A000099AC0F80880C0E9002B7AE711264FF0BB
:1007B000000857E72DE9F04F88460446D21D22F085
:1007C000070191B0D1E90001CDE90A0103F029F94F
:1007D00002460B98C00F01D02D2007E0206881074A
:1007E00001D52B2002E0202101EAC000032A099054
:1007F00001D0072A05DB03464146204600F08EF96A
:100800000BE12078800601D5E06900E00620B8F110
:10081000650F814606D0B8F1660F18D0B8F1670FA2
:1008200070D131E00020B9F1110F009001DB1123EC
:1008300001E009F101030AAA01A90CA8FFF7E2FEF1
:10084000DDE90C70002609F10105834647E001202F
:100850004B4600904FF000470AAA01A90CA8FFF7E9
:10086000D1FEDDE90DB00C995D46002610B909F105
:1008700001000D18B9EB050003D4C0F1FF3609F1F2
:100880000105A5EB09002BE0B9F1010F01DA4FF0EA
:1008900001090020B9F1110F0090484601DD112334
:1008A00000E003460AAA01A90CA8FFF7ABFEDDE9A8
:1008B0000C704D4600268346207800070AD4AB45CD
:1008C00000DA5D4601A8012D04DD411911F8011C73
:1008D000302907D04F4502DA17F1040F04DA01205E
:1008E00082460FE06D1EEEE7002F02DCED1B3E445A
:1008F00003E0781CA84200DD7D1CB81B00F1010A52
:100900004FF000472078000703D4AA4501DB4FF0E1
:10091000FF3A0021B7F1004F0DF143088DF8431065
:1009200024D002202B23002F01DA7F422D230A211D
:10093000021EA0F1010000DC5FB197FBF1FC97FB08
:10094000F1F201FB1C7C17460CF1300C08F801CDCC
:10095000EEE7A8F1010003702188090501D54521C2
:1009600000E06521A0F1010800F8011C09980FA919
:10097000A1EB0807FF1D00B10120411901EBEA704E
:10098000A1693844081A401EA0612078C00602D42C
:100990002046AFF30080099828B1D4E9012190479F
:1009A000206A401C20622078C00622D52046AFF382
:1009B00000801EE0002E04DBB34502DD01A8805D4F
:1009C00000E03020D4E901219047206A401C2062D9
:1009D000761CAAF101005FEA000A0AD100F054F87F
:1009E000C0680168405CD4E901219047206A401C3E
:1009F0002062281EA5F10105DCDC07E0D4E9012115
:100A000018F8010B9047206A401C2062381EA7F19D
:100A10000107F3DC2046AFF30080032011B041E66C
:100A200001694A1C02610878704700B58FB0CDE9B2
:100A300001310021059105497944CDE903101146A2
:100A40006846FFF74DFC0FB000BD0000E5FFFFFF5B
:100A50000A6802F8010B0A60704710B5436913B1C8
:100A6000AFF3008001E0FFF7D5FB012010BD127845
:100A700000F124010A7000224A700122EDE711689A
:100A80004FF0FF32E9E700000048704754020020B1
:100A900030B5B0F10A024FEA900E71F100034EEA50
:100AA000817EB0EB0E0061EB91014FEA101E4EEA21
:100AB000017E10EB0E0041EB11114FEA102E4EEAB1
:100AC000016E10EB0E0041EB11214FEA104E4EEA81
:100AD000014E10EB0E0041EB1141401841F10001B5
:100AE0004FEAD00040EA41704FEAD10110EB800597
:100AF0004FEA810444EA907444EB01046D1944EB1D
:100B00000404521BA3414FF0000348BF0A3200D532
:100B100030BD401C41F1000130BD00002DE9F04125
:100B20001F46044603260168072A01F4006004DB1F
:100B300008B116A505E016A503E008B115A500E06B
:100B400015A521F010002060A069C01EA0610FB1A2
:100B5000401EA0612046AFF300804FB1D4E90121CF
:100B600038469047206A401C2062C01C206206E084
:100B7000206AFAE7D4E9012115F8010B9047761EA7
:100B8000F8D22046AFF30080BDE8F0814E414E0020
:100B90006E616E00494E4600696E66002DE9F047B1
:100BA000814616468AB0354878440DC88DE80D0058
:100BB00032487844801C03AC0DC884E80D0041F62F
:100BC0009B300844372190FBF1F290FBF1F5A5F141
:100BD000800501FB12041B3C02D56442012000E0A9
:100BE0000020DFF898A080460027FA44AAF1BE0A48
:100BF0000EE0E0070AD03246684607EB47010123C2
:100C00000AEB810100F046FB8DE8070064107F1CB1
:100C1000002CEED1194F7F44AE3F19E0E80715D004
:100C200007EB04100DF1180A90E80E008AE80E0098
:100C3000C068F04201D1981908903246012306A9F4
:100C400003A800F027FB03AB83E807006D10641CCA
:100C5000002DE3D14FF0010332466946B8F1000F91
:100C600003A802D000F001FB01E000F013FBC9E98A
:100C70000001C9F808200AB0BDE8F087083C000070
:100C800000487047340200207546FFF7F9FFAE4672
:100C900005006946534620F00700854618B020B588
:100CA000FFF792FABDE820404FF000064FF0000732
:100CB0004FF000084FF0000B21F00701AC46ACE804
:100CC000C009ACE8C009ACE8C009ACE8C0098D4671
:100CD000704710B50446AFF300802046BDE81040D1
:100CE000FFF75EBA4FF0013C50F8042B51F8043B7B
:100CF0009A4221D1A2EB0C03934313EACC1317D1F0
:100D000050F8042B51F8043B9A4215D1A2EB0C0386
:100D1000934313EACC130BD150F8042B51F8043B46
:100D20009A4209D1A2EB0C03934313EACC13DBD014
:100D30004FF00000704700BFD01A01BAB1FA81F13C
:100D400001F0180122FA01F0CB40C1F12001DBB221
:100D5000C0B2C01A2CFA01F3D11A914311EAC3119F
:100D6000E6D1704701491820ABBEFEE7260002001D
:100D700070475FEA400C08BF91F0000F4FEA8C23E8
:100D80004FEAC12243EA51514FEA1C5018BF00F507
:100D9000F0404FEA300018BF41F000415FEA6C5C60
:100DA00000F02980BCF1FF3F08BF40F08040704751
:100DB000130C06BF12044FF0100C4FF0000C130E72
:100DC00004BF12020CF1080C130F04BF12010CF146
:100DD000040C930F04BF92000CF1020CD30F04BF5C
:100DE00052000CF1010C11464FF00002A0F11F005F
:100DF000A0EB0C00704711F0004F08BF704731F0B6
:100E000000413FF4D5AF0B0C06BF09044FF0100CA6
:100E10004FF0000C0B0E04BF09020CF1080C0B0F75
:100E200004BF09010CF1040C8B0F04BF89000CF105
:100E3000020CCB0F04BF49000CF1010CCCF12003D4
:100E4000A0EB0C0022FA03F302FA0CF241EA0301D0
:100E500000F10100704720F07F4C80EA030023F08E
:100E60007F47ACEB070303F57C5300F0004003F130
:100E7000FF032DE980494FEA154B09B44FEA1443AB
:100E800025EA0B4E24EA03480FF2042606EB13274B
:100E900049083E785FEA320203FB0667C7F50007A0
:100EA00007FB06F64FEA54374FEAD64606F102062C
:100EB00007FB066CCCF1005C4FEA1C472CEA074CA0
:100EC00007FB06F40CFB06F504EB15464FEA9616F5
:100ED00034BF00204FF000404FEAD13706FB07FC3B
:100EE0004FEA1C4C0CFB0BF7D21B03FB0CF761EB1E
:100EF00007010CFB0EF7B0EB074072EB17420CFB3F
:100F000008F734BFA2EB0742B2EB074261EB17418F
:100F10004FEA0C444FEA910706FB07FC4FEA1C4CD2
:100F20000CFB0BF7B0EBC74072EB573203FB0CF72F
:100F300034BFA2EBC742B2EBC74261EB57310CFBA7
:100F40000EF7B0EBC70072EB57720CFB08F734BF1B
:100F5000A2EBC702B2EBC70261EB5771039F4FEAE6
:100F6000816141EA921104EBCC044FEAD1374FEA98
:100F7000826206FB07FC42EA90124FEA80604FEA69
:100F80001C4C0CFB0BF7D21B03FB0CF761EB0701AE
:100F90000CFB0EF7B0EB074072EB17420CFB08F7A7
:100FA00034BFA2EB0742B2EB074261EB17414FEAB5
:100FB0008C554FEA910704EB9C2406FB07FC4FEA93
:100FC0001C4C0CFB0BF7B0EBC74072EB573203FB2A
:100FD0000CF734BFA2EBC742B2EBC74261EB57310B
:100FE0000CFB0EF7B0EBC70072EB57720CFB08F767
:100FF00034BFA2EBC702B2EBC70261EB577115EB2E
:101000004C254FEA816141EA92114FEA82624FEA30
:10101000D13742EA901206FB07FC44F100044FEA84
:1010200080604FEA1C4C0CFB0BF7D21B03FB0CF748
:1010300061EB07010CFB0EF7B0EB074072EB1742B8
:101040000CFB08F734BFA2EB0742B2EB074261EB9F
:10105000174115EB1C154FEA813141EA92414FEAE5
:10106000823242EA90424FEA80304FEA0C7644F1F5
:10107000000448EA03434EEA0B484FF0000EB2EB7F
:10108000080C71EB030724BF624639464EEB0E0E87
:101090004FF0000B0018524149414BEB0B0BB2EBE8
:1010A000080C71EB03077BF1000B24BF6246394645
:1010B0004EEB0E0E4FF0000B0018524149414BEB26
:1010C0000B0BB2EB080C71EB03077BF1000B24BF99
:1010D000624639464EEB0E0E51EA020718BF46F043
:1010E000010616EB0E7655F1000254F1000103D50E
:1010F000BDE88901BDE80088BDE88901BDE8004878
:10110000B619524141EB0101A3F101037047808000
:101110007F7E7D7C7B7A7978777676757473727151
:1011200071706F6E6E6D6C6C6B6A6A696868676609
:1011300066656464636362616160605F5F5E5E5D9B
:101140005D5C5C5B5B5A5A5959585857575656550F
:1011500055555454535352525251515050504F4F71
:101160004F4E4E4D4D4D4C4C4C4B4B4B4A4A4A49C1
:101170004949484848474747474646464545454404
:101180004444444343434342424242414141002B91
:101190009C4630D477002BD01CB54FEA370703B4F8
:1011A0004FF010004FF01001BAF1000F06D0BCF163
:1011B000000FDCBF40F0080040F008014FF00000D5
:1011C0000FBCBDE810400BF1010BBBF1010F08BFD4
:1011D0005FEA170722BF12F1010211F101014FF07E
:1011E000004143F1000300F0004043EA0000704773
:1011F000F9D35708D0E746EA064613F1400F4FEA05
:1012000016461FDD13F1200FDFBF16430A460021EB
:1012100020335B42BED0C3F1200746EA064602FAFD
:1012200007F74FEA164646EA0706C3F1200722FAF7
:1012300003F201FA07F721FA03F14FF0000342EA43
:101240000702A7E746EA020646EA06464FEA1646BE
:1012500046EA0106BCBF46EA0646360C4FF00003DC
:101260004FF000024FF0000194E72DE9804C9A46C0
:10127000934670B491E8380007C831EA400C48BF83
:1012800034EA430C03D5FFF7E6FDFFF780FFF0BC1F
:10129000BDE8008C2DE9804C9A46934670B491E8E5
:1012A000380007C810F0804F08BF13F0804F03D1FB
:1012B00000F005F8FFF76BFFF0BCBDE8008C20F0F4
:1012C0007F4780EA030023F07F4C07EB0C03A3F574
:1012D0007C5300F00040A3F1FE0392F0000F00F0F9
:1012E000B38095F0000F00F077802DE901494FEAB7
:1012F00011404FEA144621EA004800FB06FC24EAAC
:10130000064708FB06F607FB08F800FB07F718EB93
:1013100006484CEB164C4FEA124B18EB07484FEAC5
:1013200015464CEB174022EA0B4E0BFB06FC25EA58
:1013300006470EFB06F607FB0EFE0BFB07F71EEB40
:10134000064E4CEB164C4FF000061EEB074E4CEBD6
:10135000174B18EB0B0840F1000018EB0E0B58EB85
:10136000000840F100008F1A4FF000013CBFC94354
:10137000661B14BFB5EB040C00213CBFC943F61B30
:101380004FEA17444EEA8E0E27EA04454FEA1C47FF
:1013900004FB07622CEA074C05FB07F70CFB05F67C
:1013A00004FB0CFC16EB074642EB174216EB0C460F
:1013B00042EB1C421BEB060658EB0202414146EA97
:1013C0009E0601D5BDE80189B619524141EB0101E4
:1013D000A3F10103BDE801894FEA14454FEA114723
:1013E00024EA054621EA074C05FB07F406FB07F74C
:1013F0000CFB06F105FB0CFC11EB074144EB174419
:101400004FEA124711EB0C4144EB1C4422EA074C13
:1014100005FB07F206FB07F70CFB06F605FB0CFCC9
:1014200016EB074642EB174216EB0C4642EB1C4507
:101430006A1854F1000148BF7047B619524141EB98
:101440000101A3F10103704795F0000F37D04FEA77
:1014500011424FEA144721EA024624EA074C02FBF4
:1014600007F106FB07F70CFB06F402FB0CFC14EB80
:10147000074441EB17414FEA154714EB0C4441EB8D
:101480001C4125EA074C02FB07F506FB07F70CFB9E
:1014900006F602FB0CFC16EB074645EB174516EB70
:1014A0000C4645EB1C42121951F1000148BF704730
:1014B000B619524141EB0101A3F1010370474FEA14
:1014C00014454FEA114724EA054621EA074C05FB7B
:1014D00007F106FB07F70CFB06F24FF0000605FBD1
:1014E0000CFC12EB074241EB174112EB0C4251EBA3
:1014F0001C4148BF7047921841EB0101A3F1010361
:101500007047FEE770B50D460646002400F026F849
:1015100004E0641CE4B2012002F0AEFA2946304631
:1015200000F074FA012803D0642C10D2002407E0E4
:10153000642CEED30BE0641CE4B2012002F09CFAB0
:101540002946304600F062FA18B1642C04D300201A
:1015500070BD642CEFD3FAE7012070BD1FB5009178
:101560000021019101210291694600F05FF91FBD40
:101570001FB500910121019103210391694600F0FB
:1015800055F91FBD70B50D460646002404E0641CE5
:10159000E4B2012002F070FA2946304600F036FA33
:1015A000012801D1642CF2D3002404E0641CE4B2CD
:1015B000012002F061FA2946304600F027FA08B906
:1015C000642CF3D3282002F057FA2946304600F065
:1015D0001DFA012800D0002070BD2DE9F04107461A
:1015E00000200E4604464006050E31463846FFF7F9
:1015F000C9FF641C2843E4B2082CF4D3BDE8F08191
:101600002DE9FC471D4616468846814600F027F81E
:1016100041464846FFF776FF01281ED100246F4659
:1016200041464846FFF7D9FF3855641CE4B2052C03
:10163000F6D39DF800109DF801009DF803300A18BC
:101640009DF8020003441A449DF804309A4204D1E4
:10165000297030700120BDE8FC870020FBE770B5E1
:101660000C460546FFF784FF00222146284600F07D
:10167000D2F9142000F0BAF801222146284600F0E1
:10168000CAF9BDE87040232002F0F6B970470000A7
:101690000EB508A2642307CA8DE807000822694630
:1016A000074801F024FB012001F0BEFB012000F0FF
:1016B000B1F80EBD6B6579317363616E0000000097
:1016C000EC01002000B585B0142209A16846FEF7A0
:1016D000E3FE6423132269460A4801F008FB022056
:1016E00001F0A2FB022000F095F805B000BD00005B
:1016F000E68C89E994AE32E4B8ADE696ADE8A7A6EB
:10170000E58F9100EC01002072B6FEE710B590F86D
:1017100021100022022905D00421816380F82020B5
:10172000012010BD01680B6823F00E030B600168F7
:101730000B6823F001030B6090F84030C46B01216B
:1017400001FA03F3636080F8211080F8202010462E
:1017500010BD000010B590F821100024022903D01C
:101760000421816301243DE001680A6822F00E0231
:101770000A6001680A6822F001020A601A4A0168D8
:10178000914201D1012121E0174A1432914201D145
:1017900010211BE0144A2832914201D1891515E02D
:1017A000114A3C32914201D189140FE00E4A503265
:1017B000914202D14FF4803108E00B4A64329142E9
:1017C00002D14FF4801101E04FF08071064A083ACF
:1017D0005160012180F82110002180F82010416B18
:1017E00001B18847204610BD0800024070B504468C
:1017F00000F016F90546601C02D004480078044445
:1018000000F00EF9401BA042FAD370BD1C0000206E
:1018100070470000044910B50A68024202D008600F
:10182000FFF7F6FF10BD0000140401402DE9F84F4A
:10183000DFF8B8910024A9F1040B23460F2709F122
:10184000040AABF1040EC9E00125A5402A40AA42D2
:101850007DD1674ED1F804C0ACEB0608B44532D058
:1018600014DCBCF1030F3AD009DCBCF1000F2AD024
:10187000BCF1010F1CD0BCF1020F31D11DE0BCF155
:10188000110F17D0BCF1120F2AD119E0B8F5881F3B
:1018900019D006DCB8F5803F15D0B8F5801F1FD1F0
:1018A00011E0B8F5001F0ED0B8F5041F18D10AE0FA
:1018B000CB6815E0CB681B1D12E0CB6808330FE046
:1018C000CB680C330CE08B682BB1012B4FF0080375
:1018D00003D0456104E0042302E0056100E0002339
:1018E000FF2A01D8064601E000F104064FEA84050C
:1018F00001D9A5F12005D6F8008007FA05FC28EAF1
:101900000C0803FA05F548EA0508C6F800804D689A
:10191000ED0062D5374DAE6946F00106AE61AD69A6
:1019200024F0030605F001050095334D06EB050C88
:10193000DCF80850A607360F07FA06F825EA08056E
:10194000DFF8B880404503D14FF0000817E044E0CD
:10195000DFF8AC80404502D14FF001080FE0DFF81E
:10196000A480404502D14FF0020808E0DFF89880DB
:10197000404502D14FF0030801E04FF0040808FA97
:1019800006F848EA0508CCF808804D68D9F80060E8
:10199000ED024D4601D5164300E096432E604D689A
:1019A000DAF80060AD02554601D5164300E09643D3
:1019B0002E604D68DBF80060AD035D4601D516432F
:1019C00000E096432E604D68DEF80060ED0375463A
:1019D00001D5164300E096432E60641C0D682A462C
:1019E000E5407FF431AFBDE8F88F00000804014006
:1019F00000001110001002400000014000080140EA
:101A0000000C0140001001400014014080680840B3
:101A100000D0012070470AB1016170470904FBE75B
:101A200001488068704700001C000020024881685F
:101A300002781144816070471C000020074810B5EF
:101A4000016841F010010160032000F075F80F20DB
:101A500000F006F800F024F8002010BD002002403D
:101A600070B50D4D04464FF47A712878B1FBF0F053
:101A70000A490968B1FBF0F000F0DCFA48B9102C13
:101A800007D200222146501E00F036F800206C607C
:101A900070BD012070BD00001C0000202800002047
:101AA0000C4808B5816941F001018161816901F04B
:101AB00001010091C16941F08051C161C06900F02C
:101AC000805000900448416821F0E06141F00071CD
:101AD000416008BD0010024000000140002809DB01
:101AE00000F01F02012191404009800000F1E02038
:101AF000C0F8001170470000F0B40E4B1B680C4694
:101B0000C3F30223C3F10705042D00D90425191DD1
:101B1000072901D2002300E0DB1E012606FA05F1A9
:101B2000491E214099409E40761E16403143F0BC2C
:101B300001F08BBF0CED00E0064900F007020868D9
:101B40004FF6FF03184040EA0220034A10430860A2
:101B5000704700000CED00E00000FA052DE9F047A9
:101B60000F46050061D0434E306800F00700B842D0
:101B700009D2306820F0070038433060306800F048
:101B80000700B84251D128683B4C810712D5400765
:101B900003D5606840F4E06060602878000703D5F2
:101BA000606840F4605060606068A96820F0F000F0
:101BB000084360602878C00728D06868012810D0E2
:101BC0002168022810D0890700292EDA616821F0E7
:101BD000030101436160FFF723FF804641F288392A
:101BE0000DE021688903EFE78901EDE7FFF718FFB2
:101BF000A0EB0801494502D90320BDE8F0876068E1
:101C0000696800F00C00B0EB810FEFD1306800F094
:101C10000700B8420BD9306820F007003843306025
:101C2000306800F00700B84201D00120E5E72878CD
:101C3000400705D56068E96820F4E060084360600B
:101C40002878000706D56068296920F4605040EACA
:101C5000C100606000F038F86168084AC1F3031100
:101C6000515CC8400649086006480068FFF7F8FE66
:101C70000020C2E700200240001002401E4700087A
:101C80002800002020000020044805490068496819
:101C9000044AC1F30221515CC8407047280000206B
:101CA000001002402E4700080448054900684968B2
:101CB000044AC1F3C221515CC8407047280000208B
:101CC000001002402E4700080E4A51680E4801F0ED
:101CD0000C03042B11D0082B0FD10C48C1F3834304
:101CE000C903C05C0AD55168084AC1F34041921E3D
:101CF000515C054A5043B0FBF1F07047044948433A
:101D0000704700000010024000127A000E470008E1
:101D100000093D002DE9F84F040070D02078C04D37
:101D2000C00749D06868C0F38100012807D06868FF
:101D3000C0F38100022809D16868C00306D528686D
:101D4000800339D560680028E7D035E06068B0F5D9
:101D5000803F0BD010B1B0F5A02F11D0286820F42F
:101D600080302860286820F4802002E0286840F451
:101D700080302860606890B1FFF752FE06460AE0A6
:101D8000286840F480202860F0E700BFFFF748FE95
:101D9000801B642873D828688003F7D50CE0FFF710
:101DA0003FFE064605E000BFFFF73AFE801B6428B1
:101DB000F0D828688003F7D420789A4E80074FF037
:101DC00001094FF0000839D5686810F00C0F07D0F2
:101DD0006868C0F38100022809D16868C00306D48E
:101DE0002868800714D52069012808D110E02069EF
:101DF000B0B1C6F80090FFF713FE074605E00AE110
:101E0000FFF70EFEC01B0228C4D828688007F7D54C
:101E10002868616920F0F80040EAC10028600DE000
:101E2000C6F80080FFF7FCFD074604E0FFF7F8FD69
:101E3000C01B022823D828688007F7D42078000721
:101E40002CD57948A169D9B1C0F80090FFF7E8FD19
:101E5000074604E0FFF7E4FDC01B02280FD8686ABC
:101E60008007F7D571484FF4FA510068B0FBF1F0E4
:101E7000009000BF0098411E0091FAD20EE080E071
:101E8000C0F80080FFF7CCFD074604E0FFF7C8FD6F
:101E9000C01B022875D8686A8007F7D420784007ED
:101EA00060D5E8690027C00008D4E86940F0805098
:101EB000E861E869012700F0805000905C48016803
:101EC000C90513D40168834641F480710160FFF7AE
:101ED000A7FD824606E000BFFFF7A2FDA0EB0A00C7
:101EE00064284ED8DBF80000C005F5D5E06801286D
:101EF0000AD008B1052813D0286A20F00100286212
:101F0000286A20F0040002E0286A40F001002862FC
:101F1000E06841F2883B98B1FFF782FD82460BE012
:101F2000286A40F004002862EEE700BFFFF778FD62
:101F3000A0EB0A0159455AD8286A8007F6D50CE06B
:101F4000FFF76EFD824605E0FFF76AFDA0EB0A0190
:101F500059454CD8286A8007F6D41FB1E86920F0AB
:101F60008050E861E06988B36968C1F381010229A2
:101F700044D00228C6F8608004D0FFF751FD044623
:101F800038E034E0FFF74CFD074604E0FFF748FD7A
:101F9000C01B02282BD828688001F7D4206AB0F52E
:101FA000803F05D16868A16820F40030084368606C
:101FB000D4E908010843696821F474110843686092
:101FC000C6F86090FFF72CFD044606E025E000BF50
:101FD000FFF726FD001B022809D828688001F7D5E5
:101FE0001BE000BFFFF71CFD001B022802D90320E5
:101FF000BDE8F88F28688001F4D40EE00128F7D0FE
:102000006868226A00F48031914204D1616A00F468
:102010007010884201D00120EAE70020E8E70000C4
:10202000001002400000424280044242280000208A
:102030000070004010B5401EB0F1807F01D3012038
:1020400010BD4FF0E02460610F21601701F0FDFC2E
:102050000020A06107202061002010BD704770475C
:1020600010B590F83C20012A22D0012280F83C20B3
:10207000CA688C6822F4407222434C6822F4806261
:1020800022430C6822F4006222430C6922F480523D
:1020900022434C6922F400522243C969002322F4EE
:1020A00080420A4301684A6480F83C30002010BD39
:1020B000022010BD70B590F83C20012A26D00124E2
:1020C00080F83C40022280F83D2003685A689D68F1
:1020D00022F070060A6832435A600D4B02689A4239
:1020E00008D0B2F1804F05D00A4B9A4202D00A4B79
:1020F0009A4204D1496825F080031943916080F821
:102100003D40002180F83C10084670BD022070BDA3
:10211000002C0140000400400008004010B50400FD
:1021200003D094F83D0010B107E0012010BD00205D
:1021300084F83C00204600F01FF8022084F83D009F
:10214000211D206801F0FCF8012084F8460084F885
:102150003E0084F83F0084F8400084F8410084F891
:10216000420084F8430084F8440084F8450084F871
:102170003D00002010BD000000B585B00021009199
:10218000019102910391214A01682148914209D1AC
:10219000816941F400618161806900F4006004900C
:1021A00005B000BDB1F1804F21D01A4A9142F7D15C
:1021B000C16941F00401C161C16901F004010491E8
:1021C000816941F0080181618069694600F0080079
:1021D0000490C02000901048FFF728FB0022022145
:1021E0001E20FFF789FC1E20FFF778FCD8E7C169A5
:1021F00041F00101C161C069002200F001000490BA
:1022000002211C20FFF778FC1C20EDE7002C014088
:102210000010024000080040000C014090F83D1002
:10222000012901D001207047022180F83D1001688A
:10223000CA6842F00102CA6000680B49884208D0AF
:10224000B0F1804F05D00949884202D00849884240
:1022500004D1816801F00701062903D0016841F02B
:102260000101016000207047002C01400004004083
:102270000008004070B5044690F83C000025012895
:1022800017D0012684F83C60022084F83D002068C5
:10229000826822F0770222F47F4282600868502828
:1022A00038D00DDC20284FD005DC90B3102811D198
:1022B0004AE0022070BD302846D040280AD13BE0D9
:1022C00060282FD070280DD0B0F5805F03D0B0F516
:1022D000005F12D0012584F83D60002084F83C00A6
:1022E000284670BDCB68D1E90121206801F071F862
:1022F0002068816841F0770109E0CB68D1E90121CC
:10230000206801F066F82068816841F480418160AE
:10231000E1E719E0CA684968206801F00FF9502127
:10232000206806E0CA684968206801F045F9602124
:10233000206801F058F8CEE7CA684968206801F0C3
:10234000FDF840212068F4E7226801461046F0E7D6
:1023500070472DE9F041054690F83C0000260C46F8
:10236000012810D0012085F83C0072B1042A1CD04D
:10237000082A2CD00C2A50D00126002085F83C00D9
:102380003046BDE8F0810220FBE7D4E90012E368A3
:10239000286801F0E5F82868816921F00C01816165
:1023A00028688169A26811430FE0D4E90012E3684C
:1023B000286801F013F92868816921F4406181617E
:1023C00028688169A26841EA02218161D5E728680D
:1023D000D4E9002C277B036A016A21F48071016231
:1023E000C16923F4007321F0030141EA0C0121F0DB
:1023F000F00C39074FF400774CEA116107EA02222A
:102400001A43C16102622868C16921F00C01C161EF
:102410002868C169A26811432BE02868D4E900212B
:10242000E768036AD0F820C02CF4805CC0F820C0B4
:10243000D0F81CC023F400532CF4407C4CEA01215A
:1024400021F4704C4FF6FF7101EA07314FF4005749
:1024500041EA0C0107EA02321A43C16102622868AC
:10246000C16921F44061C1612868C169A26841EA7B
:102470000221C16181E710B5040003D094F83D004A
:1024800010B107E0012010BD002084F83C00204678
:1024900000F01EF8022084F83D00211D206800F0A5
:1024A0004FFF012084F8460084F83E0084F83F0086
:1024B00084F8400084F8410084F8420084F8430026
:1024C00084F8440084F8450084F83D00002010BDE5
:1024D0007047000030B50446002551B104290DD0E5
:1024E000082910D094F8410094F84520012811D112
:1024F0000EE094F83E0094F84220F7E794F83F008D
:1025000094F84320F2E794F8400094F84420EDE773
:10251000012A01D0012030BD022059B1042912D076
:10252000082919D084F8410084F845000C2938D0D6
:10253000012534E084F83E0084F842002068C26837
:1025400042F0020210E084F83F0084F84300206863
:10255000C26842F0040207E084F8400084F84400B6
:102560002068C26842F00802C2600122206800F0C0
:1025700023FF0E492068884208D0B0F1804F05D073
:102580000B49884202D00B49884204D1816801F08E
:102590000701062903D0016841F0010101602846C6
:1025A00030BD2068C26842F01002DDE7002C014017
:1025B00000040040000800402DE9F0410446006896
:1025C000C66805694FF00007A90713D5B10711D5F3
:1025D000F91E01610120207720688069800720466C
:1025E00002D0FFF7B5FE04E000F0A4F8204600F0AA
:1025F00036F92777680716D5700714D521686FF06C
:1026000004000861022020772068806910F4407F70
:10261000204602D0FFF79CFE04E000F08BF8204635
:1026200000F01DF92777280715D5300713D5216845
:102630006FF008000861042020772068C0698007D7
:10264000204602D0FFF784FE04E000F073F8204635
:1026500000F005F92777E80616D5F00614D52168AD
:102660006FF010000861082020772068C06910F41E
:10267000407F204602D0FFF76BFE04E000F05AF8DE
:10268000204600F0ECF82777E80708D0F00706D0DE
:1026900021686FF001000861204600F02FF928063C
:1026A00008D5300606D521686FF080000861204605
:1026B000FFF7D4FC680608D5700606D521686FF0D0
:1026C00040000861204600F040F9A8060AD5B0068F
:1026D00008D521686FF0200008612046BDE8F04170
:1026E000FFF7BDBCBDE8F08100B585B000210091C9
:1026F00001910291039100680B49884212D10B4865
:10270000816941F0040181618069694600F004003B
:1027100004904FF410600090022001900390044850
:10272000FFF784F805B000BD002C01400010024006
:1027300000080140704770B5044690F83C00002640
:102740000D4601280FD0012084F83C006AB1042A0C
:102750001DD0082A2FD00C2A3FD00126002084F853
:102760003C00304670BD022070BD206800F044FE81
:102770002068816941F0080181612068816921F048
:1027800004018161206881692A69114311E0206890
:1027900000F05AFE2068816941F40061816120687F
:1027A000816921F480618161206881692A6941EA37
:1027B00002218161D2E7206800F072FE2068C169C1
:1027C00041F00801C1612068C16921F00401C161C3
:1027D0002068C1692A69114311E0206800F08CFE6D
:1027E0002068C16941F40061C1612068C16921F4B8
:1027F0008061C1612068C1692A6941EA0221C16121
:10280000ACE710B5040003D094F83D0010B107E028
:10281000012010BD002084F83C00204600F01EF886
:10282000022084F83D00211D206800F089FD012070
:1028300084F8460084F83E0084F83F0084F84000A5
:1028400084F8410084F8420084F8430084F844008E
:1028500084F8450084F83D00002010BD70477047A3
:1028600010B50446022249B104290ED0082913D01C
:1028700094F84100012816D0012010BD94F83E00C4
:102880000128F9D184F83E200FE094F83F00012898
:10289000F2D184F83F2008E094F840000128EBD101
:1028A00084F8402001E084F841200122206800F0F3
:1028B00083FD0F492068884203D1426C42F40042F4
:1028C00042642068884208D0B0F1804F05D00949A1
:1028D000884202D00849884204D1816801F007018A
:1028E000062903D0016841F001010160002010BDFC
:1028F000002C0140000400400008004006498842C6
:1029000009D10648C168491CC160642903D301216B
:1029100001700021C16070471401002000000020F8
:102920000246002041B1042909D008290AD00C2907
:1029300001D11068006C70471068406B70471068D8
:10294000806B70471068C06B704770477047704766
:10295000F8B5016804460868CA684B6910F00F0FA3
:102960004FF0000559D003F0010602F49077374389
:1029700065D0C10705D0D10503D5616C41F00101D7
:102980006164410705D5D90703D0616C41F00201AC
:102990006164810705D5D90703D0616C41F004015A
:1029A0006164010707D502F02001314303D0616C57
:1029B00041F008016164616C00293AD0800604D5B9
:1029C000900602D5204600F053FE20684069616CF5
:1029D000C0F38010090700D460B3204600F021FE48
:1029E00020684069400621D52068143050E8001F57
:1029F00021F0400140E80012002AF5D1E06BA8B1B7
:102A00006D494163E06BFEF7A5FE002811D0E06B35
:102A1000416B01B0BDE8F040084783060FD593062F
:102A20000DD52046BDE8F84000F022BE2046FFF755
:102A30008EFFF8BD2046FFF78AFF6564F8BD266B60
:102A40002023012E7CD1C6067AD5D60678D5086813
:102A50004868009048694FF00206400640D5E16B97
:102A6000086840680004000CE8D0A28D8242E5D9D5
:102A7000E085886920282DD020680C3050E8001FA0
:102A800021F4807140E80012002AF5D1206814304A
:102A900050E8001F21F0010140E80012002AF5D1A2
:102AA0002068143050E8001F21F0400140E8001277
:102AB000002AF5D184F84230256320680C3050E8B4
:102AC000001F21F0100140E80012002AF5D1E06B50
:102AD000FEF71CFE6663A08DE18D401A81B22AE0EC
:102AE000A08DE18D401A81B2E08D0028A6D000298A
:102AF000A4D022680C3252E8000F20F4907042E813
:102B00000007002FF5D12068143050E8002F22F084
:102B1000010240E80027002FF5D184F842302563F8
:102B200020680C3050E8002F22F0100240E800230B
:102B3000002BF5D166632046FFF708FFF8BDFFE7DD
:102B400005062BD5150629D594F841002128F5D185
:102B5000A068B0F5805F01D12069B0B1206A411C46
:102B60002162216800784860E08C401E0004000C5F
:102B7000E084E3D12068C16821F08001C160206851
:102B8000C16841F04001C160D8E7206A0088C0F305
:102B900008004860206A801C2062E5E74006CDD529
:102BA0005006CBD5CA68204622F04002CA6084F89D
:102BB000413000F0ECF8C1E71336000870B50400AE
:102BC00004D094F84100002510B106E0012070BD4A
:102BD00084F84050204600F023F8242084F8410077
:102BE0002068C16821F40051C160204600F0A2FDB8
:102BF0002068016921F4904101612068416921F058
:102C00002A0141612068C16841F40051C1606564D6
:102C1000202084F8410084F842006563002070BDE4
:102C200070B586B0002400940194029403942B4E56
:102C300003682B49022003222A4DB34229D18B6914
:102C400043F480438B618B6903F4804304938B6965
:102C500043F004038B618969039201F0040104913C
:102C60000102CDE9001069462846FEF7DFFD281570
:102C7000CDE90004694628460294FEF7D7FD0022FC
:102C800011462520FEF738FF2520FEF727FF06B066
:102C900070BD154EB342FAD1CB6943F40033CB611A
:102CA000CB6903F4003304938B6943F004038B6115
:102CB0008969039201F0040104910421CDE9001017
:102CC00069462846FEF7B2FD0820CDE900046946B2
:102CD00028460294FEF7AAFDD9E70000003801401B
:102CE00000100240000801400044004070472DE9F8
:102CF000F843044690F84100984616460D462028B1
:102D000002D00220BDE8F88385B17EB10020606466
:102D1000212084F84100FEF783FEA6848146E684E4
:102D2000A0682027B0F5805F02D003E00120E9E72A
:102D3000206910B12E4600250EE000260CE080210F
:102D4000204600F053FDA8B9C6B116F8010B216862
:102D50004860E08C401EE084E08C4B464FF000025F
:102D6000CDF800800028EAD14FF04001204600F065
:102D70003DFD40B184F841700320C3E735F8020BF4
:102D8000C0F30800E3E784F841700020BAE7704719
:102D9000FEE700002DE9F047204CDFF884A0214D2C
:102DA000207900264FF0010840F2DC594FF4FA7701
:102DB000012810D1FEF734FE2169401A14280AD3E5
:102DC00001215046FEF722FE28B9A078D0B128682C
:102DD0004763A67026716079012811D1FEF720FEA5
:102DE0006169401A14280BD302215046FEF70EFEEB
:102DF000002805D1E07858B128680764E67066714C
:102E0000BDE8F0872968C1F8349084F80280E1E7D2
:102E10002968C1F8409084F80380F0E700000020A2
:102E200000080140CC00002010B50121074C01280A
:102E300006D0022803D16171FEF7F2FD606110BD7A
:102E40002171FEF7EDFD206110BD000000000020A3
:102E50002DE9F04186B00024374800940194029493
:102E60000394816941F010018161816901F01001D1
:102E70000491816941F020018161816901F02001A3
:102E80000491816941F004018161816901F00401CB
:102E90000491816941F0080181618069274F00F048
:102EA00008004FF400550490002229463846FEF7EA
:102EB000B2FDDFF88C80002245F220114046FEF77B
:102EC000AAFD0095022601250396CDE90154694625
:102ED0003846FEF7ABFC03271A480097CDE90105F9
:102EE00069461948FEF7A2FC4FF4A040CDE9000561
:102EF000CDE9024769464046FEF798FC4FF49070D2
:102F0000009001AA112082E8510069464046FEF770
:102F10008DFC002202210620FEF7EEFD0620FEF7C2
:102F2000DDFD002202210720FEF7E6FD0720FEF767
:102F3000D5FD06B0BDE8F081001002400010014050
:102F4000000C0140000021100008014010B596B0AF
:102F500000240F9410941194129413941C21684629
:102F60001494FDF7CBFA202107A8FDF7C7FA2E48E5
:102F70002C4901604721C0E9011444F61F61C0E9F2
:102F800003148021C0E90541FFF7C8F808B1FEF736
:102F9000BBFB4FF480500F900FA92348FFF76AF94D
:102FA00008B1FEF7B1FB2048FFF72BFC08B1FEF794
:102FB000ABFB139413A91C481494FFF77BF808B1DA
:102FC000FEF7A2FB6020009040F2DC50CDE9010446
:102FD0000394049405940022694613480694FFF76D
:102FE000AAFB08B1FEF790FB0C2269460E48FFF7DA
:102FF000A2FB08B1FEF788FB0794089409944FF4EC
:1030000000500A94CDE90B4007A907480E94FFF73A
:1030100027F808B1FEF778FB0348FFF765FB16B009
:1030200010BD0000002C0140CC00002010B586B07F
:1030300000241748009401940294039404944FF0E0
:1030400080410594016041F61F41C0E9011440F23E
:10305000E731C0E903148461FFF760F808B1FEF7B7
:1030600053FB4FF48050009069460948FFF702F97E
:1030700008B1FEF749FB049404A905480594FFF73D
:1030800019F8002801D0FEF73FFB06B010BD000084
:103090001401002010B58AB0002426480494059439
:1030A000069407940894099400940194029420498A
:1030B000039401604721C0E901144FF6FF71C0E994
:1030C00003148461FFF72AF808B1FEF71DFB4FF4E3
:1030D0008050049004A91748FFF7CCF808B1FEF718
:1030E00013FB1448FFF7C7F908B1FEF70DFB08946E
:1030F00008A910480994FEF7DDFF08B1FEF704FBAC
:103100000120CDE900400294002269460948039459
:10311000FFF71FF908B1FEF7F7FA042269460548E0
:10312000FFF717F9002801D0FEF7EEFA0AB010BD3C
:10313000000800405C0100200C4810B50A490160FD
:103140004FF4E1314160002181600C22C160C0E98F
:1031500004128161C161FFF731FD002803D0BDE891
:103160001040FEF7D1BA10BD00380140A401002084
:103170000C4810B50A4901604FF4E131416000216B
:1031800081600C22C160C0E904128161C161FFF756
:1031900015FD002803D0BDE81040FEF7B5BA10BDFC
:1031A00000440040EC010020FEE7FEE7704700000D
:1031B0002DE9F04794B0804614468A461846DDF85B
:1031C000709001F0BBF806460F46204601F0B6F8B5
:1031D00004460D46504601F0B1F80A468DE8F50266
:1031E000424608A107A8FDF701F807A8FDF735F941
:1031F00082B2642307A90A48FFF779FD14B0BDE83D
:10320000F0870000444154412C25642C252E316662
:103210002C252E31662C252E31662C25730D0A00A7
:10322000A40100207047FEF701BC30B58FB0282103
:103230006846FDF763F914210AA8FDF75FF901213B
:103240000804CDE900100024029402250491CDE980
:1032500007504FF4E01009906846FEF75BFD08B197
:1032600072B6FEE70F20CDE90A054FF48060CDE984
:103270000C4002210AA80E94FEF770FC002801D031
:1032800072B6FEE70FB030BD704700000148FFF78F
:1032900093B90000140100202DE9F041244D286865
:1032A0000069244CC04380074FF001071AD42068FE
:1032B000214E80074FF00001284607D4FFF730FB6E
:1032C0003060206840F00200206007E0FFF728FB34
:1032D0007060206820F002002060377329686FF06A
:1032E0000200086128680069C04340071AD42068BA
:1032F000124E80060E484FF0040107D4FFF710FB72
:103300003060206840F02000206007E0FFF708FBF5
:103310007060206820F020002060377329686FF00B
:1033200004000861BDE8F0410148FFF745B900001D
:103330005C01002020080040AC000020BC00002000
:10334000F0B50268194B1A4C1A4D4FF0804798425D
:1033500005D0B84203D0A04201D0A84203D122F048
:1033600070064A683243984205D0B84203D0A04262
:1033700001D0A84203D122F44074CA6822434C69A8
:1033800022F08002224302608A68C2620A68826276
:10339000984201D109690163012141610169C907AD
:1033A00003D0016921F001010161F0BD002C014051
:1033B000000400400008004010B501F01F03012187
:1033C000046A99408C430462016A9A401143016285
:1033D00010BD10B5846842EA032224F47F440A43F6
:1033E0002243826010BD826822F070020A4342F0DC
:1033F000070181607047000030B5036A026A22F05D
:10340000010202624268846924F073050C682C434F
:1034100023F002058B682B430A4DA8420BD123F001
:103420000805CB6822F440722B434D6923F0040356
:1034300015438A692A434260846149684163036293
:1034400030BD0000002C014030B5026A036A23F051
:1034500010030362436884690D6824F4E64444EA77
:1034600005248D6822F0200242EA05120B4DA84285
:103470000ED1CD6822F0800242EA05124D6923F494
:10348000406343EA85038D6922F0400243EA8503E5
:103490004360846149688163026230BD002C014051
:1034A00030B5036A026A22F4807202624268C4691B
:1034B00023F4007324F073050C682C438D6843EAF1
:1034C00005230C4DA8420ED1CD6823F4006343EAD6
:1034D00005234D6922F4405242EA05128D6923F416
:1034E000806342EA05124260C4614968C1630362B5
:1034F00030BD0000002C014030B5046A026A22F49D
:10350000805202624268C3690D6823F4E64343EACD
:1035100005238D6824F4005444EA0534064DA8427E
:1035200004D14D6922F4804242EA85124260C361AF
:1035300049680164046230BD002C014010B5036A83
:10354000046A24F001040462846924F0F00444EA6B
:10355000021423F00A020A438461026210BD0000D3
:1035600070B5056A046A24F00104046284690F4E90
:10357000B04208D0B0F1804F05D00D4EB04202D01D
:103580000C4EB04203D124F00304144301E044F094
:1035900001041A0724F0F00444EA126225F00A0339
:1035A00001F00A0119438261016270BD002C0140E3
:1035B000000400400008004010B5036A046A24F0CB
:1035C00010040462846923F0A00324F4704444EAE4
:1035D000023243EA01118261016210BD30B5046A12
:1035E000056A25F010050562856925F4407545EAF0
:1035F000022222F470454FF6FF7202EA033224F0F1
:10360000A0032A43A02404EA011119438261016244
:1036100030BD10B5406A0021C185C184FFF797F91C
:1036200010BD01680C3151E8002F22F4907241E87E
:103630000023002BF5D10168143151E8002F22F04E
:10364000010241E80023002BF5D1016B012909D1CA
:1036500001680C3151E8002F22F0100241E80023EC
:10366000002BF5D1202180F8421000210163704722
:1036700008B590F84210222901D0022008BD8268C6
:103680004FF480539A4201D1016921B1816A9A4273
:103690001BD04AB10AE00268816A5268C2F308028C
:1036A0000A80816A891C08E0026972B10268526866
:1036B00002F07F020A70816A491C8162C18D491E35
:1036C0000904090CC18503D01BE002685268F1E7C8
:1036D0000168CA6822F02002CA600168CA6822F440
:1036E0008072CA6001684A6922F001024A612021A1
:1036F00080F8421000214163026B012A03D0FFF7DA
:10370000F5FA002008BD016301680C3151E8002F73
:1037100022F0100241E80023002BF5D101680A686D
:10372000D20602D50A6849680091818DFFF70EF92B
:10373000E7E7000070B5044600680169E26821F41B
:103740004051114301612169A06808436169084340
:103750002168CA6841F20C639A430243CA60206838
:103760004169A26921F44071114341611E492068F9
:10377000884202D1FEF798FA01E0FEF785FA00EBE5
:10378000C00101EB0012606864218000B2FBF0F31D
:10379000B3FBF1F36FF018067343B2FBF0F5B2FB25
:1037A000F0F605EB8305322303EB0515B5FBF1F5C8
:1037B000B6FBF1F605F0F00505EB0615B2FBF0F6E9
:1037C000B2FBF0F0B0FBF1F06FF01802504306EBE3
:1037D000800003EB0010B0FBF1F0216800F00F0057
:1037E0002844886070BD0000003801402DE9F8438E
:1037F000984617460D460446089E24E0701C22D0C9
:10380000FEF70EF9A0EB0800B0421AD8CEB120683E
:10381000C168490717D5802D15D0402D13D00168F8
:10382000C94309070FD4016800254068009020466D
:10383000FFF7F7FE0820606484F840500120BDE8DF
:10384000F8830320FBE72068006835EA000004D015
:103850000020B842D2D00020F1E70120F9E70000B3
:10386000124830B401680A68D24392060ED4CA687E
:1038700042F01002CA60026854680E4B0C4D198861
:103880006C54491C19806FF02001116000680168B8
:10389000C943C90606D4C16821F01001C1600649B8
:1038A0000120087030BC0148FFF752B8A401002085
:1038B0002C0000200A000020010000202DE9F05F0C
:1038C000314CDFF8C890DFF8C8A0207B314EDFF81C
:1038D000C8B04FF6FF774FF07278002530B3D4E9C7
:1038E0000010884201D9401A01E0791A084400F01A
:1038F0002AFB4A46534600F039FB00F01BFA3146DA
:1039000000F036FE00F01AFD00225B4600F044FA9B
:1039100000F0EAFA00F000FE314600F03BFDA06046
:10392000A0F18040404500D9A5602573164C1034A5
:10393000207B002826D0D4E90010884201D9401A03
:1039400001E0791A084400F0FEFA4A46534600F0B6
:103950000DFB00F0EFF9314600F00AFE00F0EEFC3E
:1039600000225B4600F018FA00F0BEFA00F0D4FD29
:10397000314600F00FFDA060A0F18040404500D925
:10398000A5602573BDE8F09FAC0000209CC420B06A
:103990007268913F000020410000E03F10B5FEF743
:1039A0003FF80B4CA169401AC8280FD3FEF738F82E
:1039B000A061012000F00EF80A20FDF717FF022099
:1039C00000F008F8BDE81040FFF778BF10BD000018
:1039D0000000002070B5114C012819D002281BD11D
:1039E0000022450329462046FEF715F8022000F084
:1039F00043F8012229462046FEF70DF80A2000F080
:103A00003BF829462046BDE870400022FEF703B887
:103A100000224FF48055E5E770BD0000000C014026
:103A2000FEE7490050EAC12018BF04204A0D18BF24
:103A300040F0010040F2FF72B2EB515F08BF40F06E
:103A40000200012808BF052070470907090E002859
:103A500004DB00F1E02080F80014704700F00F0054
:103A600000F1E02080F8141D704730380A2801D298
:103A7000012070470020704710B54FF0E0235C69CB
:103A800009490A4A0968B1FBF2F19A694143986908
:103A9000904202D9201A104400E0101A884201D244
:103AA00000BFF4E710BD00002800002040420F00D6
:103AB00086B0FDF7C3FFFFF7B8FBFFF7C9F9FFF7C3
:103AC00057FBFFF743FAFFF7B1FAFFF7E3FAFFF707
:103AD00033FB6A480068C16841F02001C1600021E1
:103AE0006748FEF7BDFE0C216548FEF7B9FE0021D0
:103AF0006448FEF7EFFC04216248FEF7EBFC6248E5
:103B0000FEF78CFB5E4E4FF4FA7730684763DFF8C0
:103B10007CA15F4C0DF1040B4FF0010840F2DC5921
:103B2000002500BFFFF736F92078002848D0FFF7BE
:103B300035FFA07868B157A101A8FCF76AFC544B87
:103B40002021DB1D5A1E5046FDF75AFD012802D0E8
:103B500011E052A1F0E7E07900F0F6FC0490A079C2
:103B600000F0F2FC01464F48CDF800B0049A83689B
:103B70000120FFF71DFBE07870B146A101A8FCF71A
:103B800048FC434B4FF4807109335A1E5046FDF7F1
:103B900037FD012802D012E040A1EFE7607A00F083
:103BA000D3FC0490207A00F0CFFC01463D48CDF8CC
:103BB00000B01030049A83680220FFF7F9FA2570EC
:103BC00060780128AED1374837A18038FCF70FFC68
:103BD00078B13168C1F8349035A10FC98DE80F0074
:103BE00064230D2269462548FFF781F884F8028096
:103BF0003CE02C4832A18038FCF7F9FB68B1306812
:103C0000476331A30FCB8DE80F0064230E22694672
:103C10001A48FFF76CF8A57028E022482EA18038DA
:103C2000FCF7E5FB78B13168C1F840902CA00FC8D3
:103C30008DE80F0064230D2269461048FFF757F8FE
:103C400084F8038012E0174829A18038FCF7CFFBE5
:103C500060B13068076428A00FC88DE80F006423A6
:103C60000E2269460548FFF742F8E5700D48657079
:103C7000658180218038FCF741FC53E7A4010020D6
:103C8000CC0000205C01002014010020000C014049
:103C9000000000206F70656E00000000636C6F73A1
:103CA00065000000AC0000206F70656E3100000000
:103CB0006761726261676531206F70656E00000038
:103CC000636C6F73653100006761726261676531B3
:103CD00020636C6F736500006F70656E32000000CA
:103CE0006761726261676532206F70656E00000007
:103CF000636C6F7365320000676172626167653281
:103D000020636C6F7365000010B500290AD0087835
:103D1000002807D005487844FCF7E4FF002801D0CC
:103D2000002010BD0248784410BD0000D60A0000F3
:103D3000CE0A000021F00042A2F16052B2F5801FCD
:103D400001F0004328BFD2F17F6C0BD95FEA001C61
:103D500043EAC20242EB507018BF704728BF20F000
:103D600001007047B2F5801FBCBF184670474FEA8C
:103D7000410C1CF5001F02D2084600F0C0BC70B513
:103D800000F09EF900000089FFF7F6BF4FF00040F9
:103D9000A0F580007047000010B591EA030F48BFFE
:103DA00083F0004300F1E881841A71EB030C05D223
:103DB000121943EB0C03001B61EB0C01DFF824E14B
:103DC0004FEA1154A4EB135C1EEA430F18BF9EEA9E
:103DD000445F73D023EA0E03DCF1200E21EA045184
:103DE00043F4801332D322FA0CFE10EB0E0023FAB8
:103DF0000CFE41EB0E01CCF1200E03FA0EFE10EB8F
:103E00000E0051F10001B1F5801FCCF1200E32D22D
:103E100001EB045112FA0EF2BDE8104058BF704792
:103E2000401C38BF5FEA420218BF7047002814BF29
:103E300020F0010041F100014FEA410313F5001F9A
:103E400038BF7047A1F1C04100F088B9012A43EBA7
:103E50000302ACF1200CDCF11F0E32BF4FF0000E5C
:103E600023FA0CF310EB030041EB0451B4EB115FA8
:103E7000D0D0A1EB045101F5801149085FEA300070
:103E800001EB04510ED350F1000038BF12FA0EFEC0
:103E900008D1BDE81040C9E7401C38BF5FEA4202C4
:103EA000CAD1C3E7BDE810404FEA410313F5001F34
:103EB00038BF7047A1F1C04100F050B99EEA445F9D
:103EC00008D011EA5E0FBDE8104004BF01F00041C8
:103ED00000207047BDE8104070B500F0F1F800BF59
:103EE00064FBBE3E0000E0FF4FEA41034FEA53533C
:103EF000A3F58063D3F11E03C8BFD3F1210C0CDD01
:103F00004FF0004242EAC12242EA505232FA03FC28
:103F10008CEAE17CACEBE1707047102BC4BF002051
:103F2000704703F5787CBCF1FF3F04D06FF000428E
:103F300082EA2100704770B500F0C2F849922480EF
:103F400000207047F2E7B0FA80F310FA03F10AD0CC
:103F5000C3F11D0303F580634FEA41504FEA03525A
:103F600002EBD12170474FF000007047DFF848C1E5
:103F700070B51CEA111E1EBF1CEA13159EEA0C0F39
:103F800095EA0C0F00F06F8081EA030423EA4C13DA
:103F90004EEAD47E21EA4C1141F4801143F480139F
:103FA000AE44A1FB024CA0FB0365AEF17F7E361947
:103FB00055EB0C05A1FB034C4CF10003A0FB021CCC
:103FC00016EB0C06654153F10003094218BF46F099
:103FD000010613F4007F0BD14FEA03314FEA05309D
:103FE000340341EA155140EA16506FF003020AE02B
:103FF0004FEAC3214FEAC520F40241EA555140EA95
:1040000056506FF0020202EB2E4201EB025585EA98
:10401000CE710AD05FEA440C18BF24F0004450F17E
:10402000000041F1000120EAD47040F2FE7C6245BC
:1040300000D270BDA84214BF4FF080444FF04044FE
:10404000002E08BF0024BEF1806FA8BFA1F1C041BF
:10405000BDE8704080F282804FF0000001F1C04165
:1040600001F0004170479EEA0C0F0CEA131518BFCF
:1040700095EA0C0F06D04FF0000081EA030E0EF017
:10408000004170BD00F01CF88900013E00F007B847
:1040900000F009B84FEA430C5FEA5C5C08D081EAA3
:1040A000030100F05BB84FEA410C5FEA5C5CF6D1BB
:1040B0004FF00000014970470000FF070000F87F43
:1040C0000EF1020E2EF0030E5EF8046B364205D49C
:1040D000012A43EB030515F5001F12D8012841EB17
:1040E000010C1CF5001F0CD80ED14FEAD17C15F540
:1040F000001F0CEB4C0C0CF1020C08BF4CEBD37CFA
:1041000004E04FF0080C01E04FEAD37C0CEB4C05C7
:1041100026FA05F606F00706B6F1040C06D20EEBF9
:10412000860CBDE870404CF0010C6047DFE80CF0F5
:10413000090B02024FF000414FF00000A1F50021F1
:1041400070BD19461046012851EB010418BFD4F583
:10415000001484BF002001F0004170BD0808A0F5E4
:1041600000114FEA3101704710B591EA030F48BFC3
:1041700083F000433FF518AE841A71EB030C07D2AD
:1041800012198CF0004C43EB0C03001B61EB0C018B
:10419000DFF8A4E14FEA1154A4EB135C1EEA430FCD
:1041A00018BF9EEA445F00F0B08023EA6E035242DB
:1041B00021EA0451C3EB6E0338BF5B1EDCF1200E15
:1041C00025D322FA0CFE10EB0E0043FA0CFE41EB55
:1041D0000E01CCF1200E03FA0EFE10EB0E0051F191
:1041E0000001CCF1200E29D412FA0EF201EB045199
:1041F000BDE8104058BF7047401C1CBFB2F1004FD3
:10420000704700280CBF491C20F00100704712EBDA
:10421000020E43EB030218BF4FF0010E4EEA4202BA
:10422000ACF1200CDCF11E0E54D943FA0CFE10EB5D
:104230000E0051F1FF31CCF11E0ED5D50EF1010E5D
:1042400012FA0EFE404141EB010101EB445C5FEAD2
:104250005C5C10D910EBDE7001EB045138BFBEF18D
:10426000004FBDE8104018BF704700280CBF491C24
:1042700020F00100704730D24FEAD42C11F5001124
:1042800024F400641BD0B1FA81F20B3AA41AA41EE4
:10429000D2F12003914030FA03F31943904001EB2F
:1042A000CC71002C01EB0451BDE81040A8BF704751
:1042B00001F1C0414FF0000001F000417047B0FA39
:1042C00080F310FA03F100D110BDE41A173C480541
:1042D000C90AE4E701EB045110BD491001EB045198
:1042E000BDE810404FEA300002E04FF00001704797
:1042F0004A0008BF0042F8D0B2F5001F28BF70473F
:1043000001F000414FF0000070479EEA445F07D083
:1043100011EA5E0FBDE8104004BF00210020704785
:10432000BDE8104070B5FFF7CBFE00BF40DFF63EA2
:1043300083F00041104670470000E0FF43004FEA61
:10434000D30C4FEA3C0C43401FBF40070CF16051B7
:1043500013F0FE4F70471CF0006F03D100200CF0EB
:10436000004170470CF0004343EA507010B540EA3A
:10437000CC0000F07EF900BF000000924FEA00017F
:10438000FFF7ECBE4FF000414FF00000A1F5002117
:10439000704700004FF47F0C1CEAD0121EBF1CEACD
:1043A000D11392EA0C0F93EA0C0F00F0858090EA8B
:1043B000010F48BF42F4807240F4000C41F4000049
:1043C0002CF07F4120F07F4000B58142A2EB030238
:1043D0000FF2081CACEB504EC0F100009EF800E05C
:1043E0004FEA4E0E00FB0EFC38BF49004FEA2C1C72
:1043F00002F5FA020CFB0EF34FEACE1E4FEA112C27
:104400004FEAC1210EEB635E42EB22420EFB0CFC35
:104410004FEA1C5300FB03114FEA112C4FEA013104
:104420000EFB0CFC4FEADC4C00FB0C11C14228BF18
:1044300009184CEB03335DF804EB10EB410143EB3F
:10444000C250B2F57C0F38BF704729D512F0F00F7B
:104450001CBF00F1C04000F0004070470081828323
:104460008485868788898B8C8D8E8F919293959683
:1044700097999A9C9D9FA0A2A3A5A7A8AAACAEB00D
:10448000B2B3B5B7B9BCBEC0C2C5C7C9CCCED1D412
:10449000D7D9DCDFE2E6E9ECF0F3F7FAFE00000042
:1044A0004FEA400C0CF1807CBCF17E4F28BF704776
:1044B000B0F1C04000F023B990EA010F0CEAD1132B
:1044C00048BF42F48072624538BF634507D213F497
:1044D0007F0F16D080EA010000F00040704710B551
:1044E00000F0C7F8097EFC3E00F005B880EA010044
:1044F00000F00040704780EA010000F0004000F04A
:10450000FEB812F47F0F04BF0248704780EA010032
:1045100000F0F5B80000C07F10F0004148BF4042F5
:10452000B0FA80F310FA03F2C3F19D030BD051EA05
:10453000C35101EB1220530638BF704700F1010050
:1045400008BF20F001007047B0FA80F310FA03F2C0
:10455000C3F19D030AD0D90501EB1220530638BFE1
:10456000704700F1010008BF20F001007047000013
:104570004FF47F0C1CEAD0121EBF1CEAD11392EA42
:104580000C0F93EA0C0F00F0478090EA010F48BF30
:1045900042F480724FF0004C4CEA00204CEA0121BA
:1045A00002EB0302A0FB0113A2F50002002918BFD1
:1045B00043F001035B0028BF4FEA330342EB224282
:1045C0005FEA132C4CEBC2502EBFBCEB436FB2F52D
:1045D0007C0F70474FEA036CBCF1004F08BF20F01E
:1045E0000100B2F57C0F38BF70470BD582F0FF0297
:1045F00012F5803FC8BF704700F1C040D8BF00F03F
:104600000040704700F5000C5FEA4C0C48BF704753
:10461000B0F1C04000F073B890EA010F0CEAD1137A
:1046200048BF42F48072624538BF634504D280EAD5
:10463000010000F00040704710B500F01AF800BF0C
:104640008900013E00F007B800F009B85FEA410CAC
:104650005FEA1C6C08D080EA010000F050B85FEA05
:10466000400C5FEA1C6CF6D14FF00040A0F58000D2
:1046700070470EF1020E2EF0030E5EF8044B24423A
:1046800004D44FEA4102B2F17F4F11D84FEA400300
:10469000B3F17F4F0CD80ED14FEAD07CB2F17F4FEF
:1046A0000CEB4C0C0CF1020C08BF4CEBD17C04E081
:1046B0004FF0080C01E04FEAD17C0CEB4C0324FADC
:1046C00003F404F00704B4F1040C06D20EEB840CDE
:1046D000BDE810404CF0010C6047DFE80CF0070823
:1046E00002024FF00040A0F5800010BD08464200D5
:1046F00018BFD2F1807288BF00F0004010BDFF21CA
:1047000041EAD050C0057047FCF754B801020203DB
:104710000405060708090A0B0C0D0E0F1010000007
:104720000000000000000102030406070809000061
:10473000000001020304000002400000000000A08D
:104740000000000005400000000000C8000000005C
:104750000C4000000000409C0000000019400000D8
:104760000020BCBE0000000034400000BFC91B8E0A
:1047700000000004B5400000504BCFD06607E2CFE8
:10478000010000006C4100003E8251AADFEEA73418
:1047900001000000D9420000DCB5A0E23A301F97CA
:1047A000FFFFFFFFB4450000FD25A0C8E9A3C14FEE
:1047B000FFFFFFFFFF3F000000000080000000003F
:1047C000FF3F0000000000800000000008480008D3
:1047D000000000202C0000002801000834480008D8
:1047E0002C0000206C080000440100081C000000A0
:1047F00043000000F8FFFFFF0C0000000E00000067
:104800000F0000002E00000000000000000000006B
:104810000000000000000000000000000000000098
:104820000000000001000000100000000000000077
:0448300000127A00F8
:04000005080000ED02
:00000001FF
